:020000041004E6
:1000000000600020ED280410EB0B0510150B051007
:10001000AA5555AA45554C420000000000000000BA
:100020000000000000000000000000002128041073
:1000300000000000000000002B2804101B0B05101E
:10004000352804103F28041049280410F502051033
:100050000000000000000000000000005328041011
:10006000650D05105D28041035160510672804106D
:10007000C50A05106DFD041071280410290B051028
:10008000410B05107B2804109B0B051085280410DC
:10009000750B05108F28041099280410670B0510A4
:1000A000590B0510DD0B0510A3280410B9610410CD
:1000B0000000000000000000000000000000000040
:1000C00010B5904216D98AB2030C090C0C4659435C
:1000D00080B25343444350431B191A041B0C10189D
:1000E000594180225203002312184B41520DD8026D
:1000F000104310BD4843802252031218520D10467F
:1001000010BDC046EFF31482EFF30981154880F368
:100110001488BFF36F8FF0B543464C4655465E4694
:100120006746F8B4104CEFF30883636006B4BFF37E
:100130004F8F30BFC046C0460B4C646884F30888BC
:1001400082B003BCF8BC9846A146AA46B346BC465A
:10015000F0BC04BC80F3098881F31488BFF36F8F6F
:100160001047C04600000000040000208B0707D0A5
:10017000013A22D30B780131037001308B07F7D19C
:10018000830730D0DB4219D00138043A08D308C9BC
:1001900043701B0A43801B0C03710430043AF6D2EF
:1001A000D20707D30B88437001D08A78C2701B0A2C
:1001B0008370704701D00B7843707047043A06D3C0
:1001C00008C903801B0C43800430043AF8D2D207DC
:1001D00005D30B88038005D08B788370704701D0DE
:1001E0000B780370704770B4103A03D378C978C0A5
:1001F000103AFBD2530701D318C918C001D508C95A
:1002000008C0D20704D30B88038002300231002AD1
:1002100001D50B78037070BC7047C04602780B782C
:10022000002A03D0013001319A42F7D0D01A70472A
:100230000023C25C0133002AFBD1581E7047000026
:1002400002B4714649084900095C49008E4402BC69
:100250007047C04603B47146490840004900095E32
:1002600049008E4403BC7047002243088B4274D37C
:1002700003098B425FD3030A8B4244D3030B8B42A7
:1002800028D3030C8B420DD3FF22090212BA030CB0
:100290008B4202D31212090265D0030B8B4219D391
:1002A00000E0090AC30B8B4201D3CB03C01A5241B1
:1002B000830B8B4201D38B03C01A5241430B8B42F9
:1002C00001D34B03C01A5241030B8B4201D30B03E2
:1002D000C01A5241C30A8B4201D3CB02C01A524109
:1002E000830A8B4201D38B02C01A5241430A8B42CC
:1002F00001D34B02C01A5241030A8B4201D30B02B5
:10030000C01A5241CDD2C3098B4201D3CB01C01ACE
:10031000524183098B4201D38B01C01A52414309D8
:100320008B4201D34B01C01A524103098B4201D3C6
:100330000B01C01A5241C3088B4201D3CB00C01A33
:10034000524183088B4201D38B00C01A52414308AB
:100350008B4201D34B00C01A5241411A00D20146D0
:10036000524110467047FFE701B5002000F0F0F859
:1003700002BDC0460029F7D076E7704703460B431D
:100380007FD4002243088B4274D303098B425FD38E
:10039000030A8B4244D3030B8B4228D3030C8B42BA
:1003A0000DD3FF22090212BA030C8B4202D31212A0
:1003B000090265D0030B8B4219D300E0090AC30B75
:1003C0008B4201D3CB03C01A5241830B8B4201D322
:1003D0008B03C01A5241430B8B4201D34B03C01A0B
:1003E0005241030B8B4201D30B03C01A5241C30A83
:1003F0008B4201D3CB02C01A5241830A8B4201D3F4
:100400008B02C01A5241430A8B4201D34B02C01ADD
:100410005241030A8B4201D30B02C01A5241CDD282
:10042000C3098B4201D3CB01C01A524183098B42CD
:1004300001D38B01C01A524143098B4201D34B01B6
:10044000C01A524103098B4201D30B01C01A524119
:10045000C3088B4201D3CB00C01A524183088B42A0
:1004600001D38B00C01A524143088B4201D34B0089
:10047000C01A5241411A00D20146524110467047FB
:100480005DE0CA0F00D04942031000D34042534000
:1004900000229C4603098B422DD3030A8B4212D3C0
:1004A000FC22890112BA030A8B420CD389019211F2
:1004B0008B4208D3890192118B4204D389013AD02F
:1004C000921100E08909C3098B4201D3CB01C01A04
:1004D000524183098B4201D38B01C01A5241430917
:1004E0008B4201D34B01C01A524103098B4201D305
:1004F0000B01C01A5241C3088B4201D3CB00C01A72
:10050000524183088B4201D38B00C01A5241D9D289
:1005100043088B4201D34B00C01A5241411A00D20A
:100520000146634652415B10104601D34042002B06
:1005300000D54942704763465B1000D3404201B585
:10054000002000F005F802BD0029F8D016E770473A
:100550007047C0469140031C90409C46203A93400F
:10056000194352426346D340194370478446101CD6
:1005700062468C46191C634600E0C0461FB501F078
:10058000A7F8002801D40021C8421FBD10B500F013
:10059000F1FF4042013010BD10B501F099F800287C
:1005A00001DB002010BD012010BDC04610B501F0D8
:1005B0008FF8002801DD002010BD012010BDC046CD
:1005C00010B501F013F8002801DC002010BD012057
:1005D00010BDC04610B501F009F8002801DA00206E
:1005E00010BD012010BDC046002B15D1002A13D12B
:1005F000002906DB01DC002806D00020C0434108AA
:1006000002E080210906002007B4024801A1401839
:10061000029003BD3DFFFFFF03B4684601B5029899
:1006200000F038F9019B9E4602B00CBC7047C046F2
:10063000002B11D1002A0FD1002900D1002802D0AF
:100640000021C943081C07B4024802A140180290C7
:1006500003BDC046FDFEFFFF03B4684601B5029826
:1006600000F04CF8019B9E4602B00CBC7047C0469F
:10067000F0B515042D0C0F0001002E00C64684466F
:100680000004140C000C090C46434D4360436143C5
:100690004019340C241800B5A54203D9802040022B
:1006A00080464144250C6D18614659437A43300415
:1006B00049192404000C2018891804BC9046F0BD88
:1006C00070B500220C4B04000D00FFF783FF0028DB
:1006D00004D12000290001F087FE70BD064B0022E6
:1006E0002000290001F0D0FA01F07EFE80231B06D5
:1006F0009C466044F1E7C0460000E041F0B5574633
:100700004E464546DE46E0B504000D009246994649
:1007100083B08B4230D82DD04946504601F00EFFB1
:1007200029000600200001F009FF331A9846203BFB
:100730009B4633D45A465346934042461F00534685
:1007400093401E00AF423AD8AF4200D178E05B46FA
:10075000A41BBD41002B00DA75E0002200230092AB
:10076000019301235A46934001930123424693404B
:10077000009328E08242CFD9002200230092019307
:100780000C9B002B01D01C605D600098019903B0A8
:100790003CBC90469946A246AB46F0BD424620235B
:1007A0009B1A5246DA40414613004A468A401700D7
:1007B00042461F43534693401E00AF42C4D9002215
:1007C0000023009201934346002BD9D0FB07720807
:1007D0001A4346467B080EE0AB4201D1A2420CD838
:1007E000A41A9D41012024196D410021013E2418C5
:1007F0004D41002E06D0AB42EED9013E24196D4189
:10080000002EF8D1009801995B4600196941002B30
:1008100024DB2B005A464446D3402A00E2401C0009
:100820005B461500002B2ADB26009E403300260085
:100830004746BE403200801A9941009001919FE7DF
:10084000A342BCD883E74246202300219B1A002202
:10085000009101920122DA40019286E7424620236C
:100860009B1A2A0046469A402300F340444613430D
:100870002A00E2401C005B461500002BD4DA4246F9
:100880002F002023260097409B1ADE403B00334375
:10089000CDE7C046F8B5CE46474680B59146984666
:1008A00004000D0001F056FE07000E0002000B00D0
:1008B00048464146FFF7DCFE241A8D41089B38006C
:1008C00031001C605D600CBC90469946F8BDC04686
:1008D000F0B54F46D64646460D0001001800C0B59B
:1008E00017002B035A0A4B0F1343CA009146020309
:1008F0006E004100520AEC0F7D0F1543760D490D35
:10090000C00F8246AC46FF00721A844200D198E0C4
:10091000002A00DC81E0002900D1B6E0C9498E42FE
:1009200000D172E180212800090408438446382A56
:1009300000DD5EE11F2A00DDEEE120203900654682
:10094000801A8740D14085400D4339004F1EB94180
:100950006746D7402943DB1B4A46551AA9458941BA
:1009600049425B1A984643461B0200D4CCE04346FA
:100970005B025B0A98464346002B00D12CE14046BF
:1009800001F0BEFD01000839202228004346521A1A
:100990008B40D0408D4003438E4200DD17E18E1B1B
:1009A000721C1F2A00DDA7E1202118002E00891AE1
:1009B0008D408840D640D340691E8D4130439846D3
:1009C000002605436B0709D00F232B40042B05D0CD
:1009D0002B1DAB42AD416D42A8441D0043461B0296
:1009E00000D494E0974B721C9A4200D19DE041469E
:1009F000954BED0819400B00520549075B0229434E
:100A00001B0B520D12051343E40723430800190082
:100A10001CBC90469946A246F0BD002A43D08A1BD2
:100A2000002E00D02AE14C461C4300D1D1E1541ED7
:100A3000012A00D11FE2834DAA4200D172E22200B6
:100A400023E1002A00DC98E0002942D07D498E4253
:100A500000D1DAE080212800090408438446382ABE
:100A600000DD29E11F2A00DC87E1110065462039FD
:100A7000CD40202A04D040206146821A91400F4385
:100A800039004F1EB9410D431BE12900394300D104
:100A9000B5E0511E012A00D1ABE16A48824200D183
:100AA000B2E10A0043E76949751C0D4200D0CFE06E
:100AB000002E00D093E14946194300D1D1E16146AF
:100AC000394300D0E3E149465807C9080143DB0830
:100AD00026E02900394300D191E0511E012A05D0BA
:100AE0005848824200D18FE10A00B8E73D004D44EA
:100AF0004D4589416344984649428844434602260D
:100B00001B0200D5EBE0013E6B0700D05CE74346DB
:100B1000E9085A0711433200DB084A48824221D0D3
:100B20001B0352051B0B520D6CE70023002169E7E4
:100B30002A003A4369D04A465807D108DA08802388
:100B40001B0308431A4207D02900ED081D4203D1B8
:100B50002A00FF0848073843430FC1005B07C90854
:100B6000194313000A001A4300D113E28022120332
:100B700013431B03334A1B0B44E7002A4BD08A1B49
:100B8000002E00D1E7E02F48814200D195E180207E
:100B900000040343382A00DD43E11F2A00DDDBE1C6
:100BA00020201D004E46801A8540D64035434E46D3
:100BB00086403000D340461EB0419C440543ED19A9
:100BC000BD429B415B42634498460E007FE01E4A53
:100BD000761A13409846F5E6280001F091FC0100D2
:100BE00018311F2900DCCFE62B0008388340002590
:100BF000D2E662463A4311004F1EB941ACE649467F
:100C00005807C9080143DB0887E749465A07C9085E
:100C10001143DB08A6E70D49701C084200D0BBE079
:100C2000002E00D014E14946194300D175E1290096
:100C3000394300D07EE149465807C9080143DB0823
:100C40006EE7C046FF070000FFFF7FFFFE070000C2
:100C50004946CD1B6146581AA945894149428846F3
:100C600001004046091A8846090200D5A6E041461F
:100C7000294300D07FE60023002451E7C74CA1425E
:100C800000D1C7E0802424042343382A54DC1F2ADF
:100C900000DDCCE020244846A41A1D004E46A040AA
:100CA000D640A5400400D34062463543661EB44199
:100CB000D31A9C46254344E062463A4315006F1E12
:100CC000BD414D444D45894149428846984443467B
:100CD0001B0200D418E7B14B01369E4249D0424670
:100CE000AF4B01211A4013006A080D401543D90784
:100CF0005B0898460D4365E618001F3EF040202A29
:100D000003D040218A1A93401D43691E8D41002360
:100D1000002698460543F7E6110065462039CD4088
:100D2000202A04D040206146821A91400F433900A6
:100D30004F1EB94129430FE64A4613431D006B1E5F
:100D40009D417D1BAF429B4162465B42D31A984650
:100D500054460E0007E64846184300D1B3E0501E43
:100D6000012A00D10DE18D4DAA4200D1A5E002007B
:100D700010E732000023002144E620213800891AC0
:100D800065468F408D40D040791E8F4105433D43DD
:100D90006746D740DB1994E7804A904200D1ECE0E7
:100DA0003900494449459241634452429B18DD074A
:100DB00049085B08984606000D43A5E64A46BD1A59
:100DC000AF42894162464942D31A5B1A984654465B
:100DD000D1E56C07F9082143EB0804009DE64A467B
:100DE0001A4375D16146394314D1802300241B0373
:100DF000BCE64A46D51BA9458941624649429B1A31
:100E00005B1A98460126AEE54A46D1085A071143B7
:100E1000DB08A7E66346F9085A0754461143DB0886
:100E2000A0E64A4613431D006B1E9D41C7E6140011
:100E30001E00203CE640202A05D04024A21A934000
:100E40004A461A4391464D466B1E9D41354378E70D
:100E50004A461A4300D06BE66B07F9081943EB08C2
:100E600080E66146394354D06346F9085C07214364
:100E7000DB08040054E64A46BD1AAF428941624687
:100E80004942D31A5B1A9846040001266BE54A468C
:100E9000D51BA9458941624649429A1A521A904681
:100EA000120232D54A46BD1AAF42894162464942D2
:100EB000D31A5B1A9846040084E56346F9085A077A
:100EC0001143DB084EE6F90868070143EB0824E606
:100ED00062463A4300D198E64A46D1085A07114380
:100EE000DA0880231B031A4208D06046C5081D4259
:100EF00004D154462A00F908430719434B0FC9008F
:100F00005B07C908194313002CE64146294300D06A
:100F1000FAE500230A00002402E66B07F9081943EA
:100F2000EB08FDE56346F9085B07194363460400D7
:100F3000DB0817E63D004D4463444D458941984622
:100F40004942884443461B0200D4DDE54246144B27
:100F500001261A409046D7E510001E002038C640F2
:100F6000202A05D04020821A93404A461A439146CF
:100F70004D466B1E9D41354321E6020000230021B2
:100F800040E54A46D519BD428941634498464942E5
:100F90008844B3E50021014A0B0033E5FF07000058
:100FA000FFFF7FFFF0B557464E464546DE46E0B5AB
:100FB000814605000C03480092461F0085B0240BB3
:100FC000400DCE0F002859D0874B984200D198E0B1
:100FD0006B0FE4001C4380231B0423439846834B80
:100FE000ED009B4600239946834400933C037B001D
:100FF0005046240B5B0DFF0F002B67D07A4A9342BB
:1010000018D07A49420F8C46E40059461443802296
:1010100063441204CB1A14439B46C20000203300E1
:101020007B409A464B460F2B00D9EFE070499B005E
:10103000CB589F466F4B52469C462243E344002ABE
:1010400000D095E049460223194389460024022036
:10105000E5E700230024002552461B052343D20761
:1010600013432800190005B03CBC90469946A2469F
:10107000AB46F0BD002400255B4BEDE74B46234318
:10108000984600D189E0002C00D1E0E1200001F079
:1010900037FA010002000B391D235B1A4946100084
:1010A000D940083884400B004D462343984685407C
:1010B00051483C03831A9B460023994600937B00CA
:1010C0005046240B5B0DFF0F002B97D15246224355
:1010D00055D0002C00D1CAE1200001F011FA020025
:1010E0000B3A1D2301009B1A52460839DA408C4006
:1010F000144352468A40414B58449B468344002047
:101100008DE74B462343984640D108239946063B3A
:1011100000258346009369E7B246009B022BA9D0C5
:10112000032B00D111E2012B93D0354A5A44002AF7
:1011300000DC3CE16B0700D0A7E1ED084346DB0192
:1011400006D542462F4B1A4090468022D2005A4480
:101150002D4B9A428EDC4346520558075C020543EC
:10116000240B530D78E7BA46A04615000090D4E74B
:101170004A4603231A439146032052464FE7494605
:101180000123194389460024012048E70C2399468E
:10119000093BA0468346009328E704239946002391
:1011A0009B4601330025009320E7002380249A46C4
:1011B00000250D4B24034FE7802341461B031942B2
:1011C00008D01C4206D11C432403BA461500064B26
:1011D000240B41E78024434624031C432403B246E6
:1011E000014B240B38E7C046FF07000001FCFFFF5E
:1011F0009465061001F8FFFF0DFCFFFFF3030000EC
:10120000FF030000FFFFFFFEFE070000444500D281
:1012100016E100D111E101235B429C462E004046BD
:101220000025E3442302140E1C431B0C994623049F
:101230001F0C1202494600920197FFF79BF802002B
:101240007A430B04310C804619438A420BD901239F
:101250005B429C460919E0448C4204D88A4202D978
:10126000831E98460919881A4946FFF783F809042E
:101270008C4631046646019A090C4243030031430F
:101280008A4204D90919013B8C4200D811E1891A1C
:101290004246009E12041A43330C1F00100C904665
:1012A000029313043204160C32001B0C5A430396AB
:1012B0007B4346437843170CBC469B1963449E42CC
:1012C00003D980267602B44660441E0C30181604FA
:1012D0001B04360C9E19814200D29CE000D197E09D
:1012E000AE1B091AB54280414042081A844200D11F
:1012F00011E14946FFF73EF8019A0B044243310CD5
:10130000050019438A4207D90919013D8C4203D8C7
:101310008A4201D9851E0919881A4946FFF72AF819
:1013200009048C4631046646019A090C42430300C5
:1013300031438A4207D90919013B8C4203D88A42BA
:1013400001D9831E0919039E891A32002D041D43F9
:10135000029F2B041B0C5A437B439C46280C46439C
:10136000130CB444634478439E4203D9802676022A
:10137000B44660441E0C12041B04120C30189B1857
:10138000814206D302D001231D43CEE6002B00D1BB
:10139000CBE661186E1EA14200D2A4E0814200D2C9
:1013A000C9E000D1D9E03500EDE701256D4201210A
:1013B000891A382900DD4CE61F2900DC7FE01F2355
:1013C0005B429A1A4346D340202904D04446654ADA
:1013D0005A44944025436A1E954107222B43150029
:1013E00000241D401A4200D1A1E00F2200241A401F
:1013F000042A00D198E01A1D9A429B415B42E418EE
:101400001300220200D48FE001230024002523E6EC
:10141000B54200D364E743465A1E009B9C46654490
:101420001F009D429B415B421B19C9188C423AD256
:10143000884263D860D0904652E7AA4200D9EAE6D3
:101440004346DE0758086B081E43ED07EAE64846A8
:1014500001F056F801000200153120321C2900DC91
:101460001AE64B46083883400025984620E601F0EE
:1014700047F803001A00153220301C2A00DC30E641
:101480005446083B00229C4035E60F232B40042B9A
:1014900000D152E605235B42AB429B4104355B42DF
:1014A000ED0898444AE68C42C5D1AF42C0D9904677
:1014B00016E78A4200D8EAE6831E0919E7E62A4AB7
:1014C00028005A44434695409340C8406A1E9541BF
:1014D000444603432B43CC405A0792D00F221A4074
:1014E000042A88D18DE73500814200D04BE7009A6D
:1014F000934200D047E718E6AE429CD902235B42F4
:101500009C46009BE0449C4665449D429B415B4257
:101510001B19C918E4E6154A5A44002A00DC44E7BE
:1015200001230025984409E665076402240BDB08C3
:101530001D43002390E5009E023D7200B242BF4170
:101540007F423C1909190092CEE7802443462403C8
:101550001C432403064B240B7EE5009A9A42EAD3EF
:101560003500C4E73E0400001E040000FF03000035
:10157000FF070000F0B54F464646D64694469146D2
:101580001A03120B184DC0B54C000F0392465A00B7
:10159000060080463F0B0120640DC90F520DDB0F82
:1015A000AC420AD0AA4203D0944201D157450DD093
:1015B0001CBC90469946A246F0BD3D003543F7D18C
:1015C000A242F5D1524665462A43F1D10120C845D1
:1015D000EED1994206D0002CEAD13E433000461E9F
:1015E000B041E5E70020E3E7FF070000F0B54E4615
:1015F00045465746DE4604001800E0B516001B03BA
:101600001B0B324D0F034A0099464300A446B046D7
:101610003F0B520DC90F5B0DC00FAA4229D0AB4240
:1016200018D0002A2AD13C43A34665426541002BCD
:1016300002D14C46264327D0002D15D1814228D017
:1016400002200139084001383CBC90469946A24628
:10165000AB46F0BD4D462E432FD1002AEED13C4380
:1016600065426541002DE9D00028EDD101204042BE
:10167000EAE73D00254320D19342EBD0002BDDD19A
:101680004C462643DAD1DBE75B460020002BDBD05B
:10169000D6E79A420ADCE7DB4F45D1D810D00020CC
:1016A0004F45D1D20029E1D00800CDE7434258414F
:1016B0000223404218400138C6E702204042C3E7F7
:1016C000C445BDD80020C445BED2EBE7FF070000EB
:1016D000F0B54E4645465746DE4604001800E0B5D4
:1016E00016001B031B0B314D0F034A0099464300A4
:1016F000A446B0463F0B520DC90F5B0DC00FAA4266
:1017000011D0AB4214D0002A2FD13C43A3466542EE
:101710006541002B14D14C46264311D15B46002075
:10172000002B17D010E03D00254312D193421CD16D
:101730004D462E430DD1002A04D13C4365426541FC
:10174000002D0DD1814216D0022001390840013808
:1017500000E002203CBC90469946A246AB46F0BD54
:101760000028F7D101204042F4E7002BEAD14C4693
:101770002643E7D1E8E79A4206DD43425841022377
:10178000404218400138E5E79A42E9DB4F45DBD893
:1017900006D000204F45DDD20029E3D00800D9E76C
:1017A000C445D1D80020C445D4D2F5E7FF070000D6
:1017B000F0B557464E464546DE46E0B598460C0322
:1017C0004B000600924687B0240B5B0DCF0F002B19
:1017D0006CD0DD4A934200D186E0420FE40014430E
:1017E000802212041443D94AC500944663440093EE
:1017F000002399469B46434642461E03D20F5B0098
:1018000050469046360B5B0D00D178E0CE4A9342AD
:101810001DD0CE49420F8C4600996344F6008C4699
:10182000164380229C44120463461643C2000020E3
:1018300000930099434601318C4649467B40019311
:101840000F2900D97EE0C24B890059588F46524675
:10185000009B324300D056E1BB4900268C466344CE
:10186000494600930223194389460220E1E7434693
:1018700001933400150083465B46022B5ED0032B98
:1018800000D1F3E1012B00D018E100220024002553
:10189000019B12052243DB071A432800110007B001
:1018A0003CBC90469946A246AB46F0BD2500054398
:1018B00000D141E1002C00D1ADE1200000F020FE7C
:1018C000010002000B391D2310005B1A31003500A6
:1018D00008388440D94085400C439E48831A0093C1
:1018E000002399469B4686E70500254300D01CE16E
:1018F000082200930223002491469B467BE7524630
:10190000324300D10AE1002E00D176E1300000F030
:10191000F7FD02000B3A1D2301009B1A52460839BD
:10192000DA408E40164352468A40009B8949181A75
:1019300003008C466344002000937AE700240025CE
:10194000814AA5E72F0C2D042D0C2B00110C12043D
:10195000120C53439846130028007B439946484392
:101960004844834640460B00000C824658467B4361
:1019700050440293814506D99A4680235B029946DA
:10198000CA4453460293030C9B4643461B0400047F
:101990001B0C9846030043440493330C99462B00D8
:1019A0003604360C7343984633007B439A464B46C5
:1019B0005D435F4343465544180C4019824503D9A3
:1019C00080235B029A465744050CEB190593434666
:1019D0001D042D0C00044019250C2404240C2700A0
:1019E00057436A4390462A003B0C9A464A43614358
:1019F000414451448344884503D980235B0298467F
:101A000042443F040B0C3F0C0904C91927009846B7
:101A10004B4677435C436E435D433B0C9946A419A8
:101A20004C4442440395A64204D980235B02984665
:101A300045440395029B3F045B441E008342804162
:101A400023049846059B3F0C4744984676188E42DF
:101A50008941474440423D18A846934649428A4638
:101A6000C3449F42BF4180458041039BDA4498466E
:101A7000534640427F420743240C934592418A4596
:101A800089413F19DC0D049B75021D43681E854189
:101A90005346524249420A43BF184744F60D7F025B
:101AA00035435A023C431543FB0100D4C1E00121F8
:101AB0006A080D401543E20715436408264961444E
:101AC000002956DD6B0709D00F222A40042A05D0D1
:101AD0002A1DAA42AD416D4264191500E30104D5E7
:101AE00080211E4AC900144061441D4A914200DD14
:101AF00024E76207ED08640249051543240B4A0DEB
:101B0000C6E60197B8E6104A0320944663444A4665
:101B1000009303231A43914652468AE6494601231D
:101B2000194389460026012083E60C2200930323F3
:101B3000050091469B465EE60423994600230093E8
:101B4000013300249B4656E6FF07000001FCFFFF1F
:101B5000D46506100DFCFFFFFF030000FFFFFFFE32
:101B6000FE070000002380240025444A019324033B
:101B70008EE60120401A382800DD86E61F285BDD4E
:101B80001F2223005242511ACB401900202803D0B3
:101B90003B4A6244944025436A1E95412A000A4309
:101BA00007210D000024154011425BD00F210024B5
:101BB0001140042953D0111D914292415242A41860
:101BC0000A0023024BD501220024002560E6802371
:101BD0001B031C4209D01E4207D133431C0343465A
:101BE0001500240B254A019352E680221203144368
:101BF0002403224A240B01974AE600F081FC0300EB
:101C00001A00153220301C2A00DC84E65646083BB8
:101C100000229E4089E600F073FC010002001531AD
:101C200020321C2900DC4EE63400083800258440B0
:101C300053E6009B9C4641E71249220061442E0076
:101C40008D408A40C640691E8D4132432A43C440BC
:101C50005307B6D00F2111400429ACD1B1E7650775
:101C60006402240BD2081543002211E680221203DD
:101C700014432403014A240B0AE6C046FF07000070
:101C80003E0400001E040000F8B557464E46454687
:101C9000DE460400E0B51F0010000B03620F4E008B
:101CA000CD0F5B0A39031343490AE200440F214375
:101CB000C24C91469246C0007A008046760D520D85
:101CC000FF0FA24200D1B4E001246740BB46BD42F1
:101CD00000D188E0B41AA446002C00DCB2E0002A4F
:101CE00000D1C5E0B54A964200D18BE280221204B1
:101CF00011436246382A00DDA1E11F2A00DD16E209
:101D000020270C00BF1ABC400200A0466446B84021
:101D1000E240444614430200501E82416046C140E6
:101D200022435B1A49468C1AA145924152429B1AA2
:101D3000984643461B0200D417E143465B025B0A08
:101D400098464346002B00D16CE1404600F0D8FB9A
:101D50000200083A202120004346891A9340C840D7
:101D600094400343964200DD57E1961B711C1F29E6
:101D700000DDCBE1202218002600521A944090404A
:101D8000CE40CB40621E9441304398460026044327
:101D9000630709D00F232340042B05D0231DA34242
:101DA000A4416442A0441C0043461B0200D4DFE06F
:101DB000824B01369E4200D1FBE04246804BE40854
:101DC0001A401300710552075B0222431B0B490D99
:101DD0000905ED071943294310003CBC904699467C
:101DE000A246AB46F8BDB41AA446002C58DD002A22
:101DF00000D19EE0714A964200D13BE1802212045C
:101E000011436246382A00DDC1E01F2A00DCBBE135
:101E10000C00203AD44022006446202C04D04027F5
:101E20003F1BB940084380464446611E8C41144321
:101E3000B1E00C0004432AD0BB46BD422DD0614C1A
:101E4000A446B4446446002C5CD0941BA446002EE7
:101E500000D015E14D461D4300D1C3E1651E012CA4
:101E600000D10CE2554EB44200D1F8E1AC460EE18F
:101E70000A00024300D136E12200013A012C00D1D0
:101E8000C6E14E4CA44500D1F4E0944631E701246C
:101E90006740BB46BD4200D01CE74A4CA446B44450
:101EA0006446002C00D1CFE0941BA446002E00D144
:101EB0005CE1424EB24200D1ECE18026360433436D
:101EC0006446382C00DDB3E11F2C00DD38E220260B
:101ED000361B1C00B4404F46A0466446E7404446CB
:101EE0003C434F46B7403E00771EBE4134436646F2
:101EF000F340C918241884429B415B42984616005F
:101F000088444EE0304A741C144200D0D6E04A4661
:101F10001A43002E00D05BE1002A00D1A5E10A009F
:101F2000024300D0BBE14A465907D2080A43DB0806
:101F300027E00A00024300D174E12200013A012C9B
:101F400005D01E4CA44500D194E0944659E748447E
:101F5000484592415B1898460400524290444346DB
:101F600002261B0200D5C4E0013E630700D011E742
:101F70004346B4465907E2080A43DB080F498C453B
:101F800040D061461B0349051B0B490D20E7014367
:101F90000C00611E8C414C444C459241524290468B
:101FA000984443461B02E0D5044B01369E4200D0C4
:101FB0009FE03100002300220AE7C046FF0700002F
:101FC000FFFF7FFF01F8FFFFFE070000002A00D19E
:101FD00060E10A0002434DD04A465C07D208224322
:101FE0008024DB082403234207D0CE08264204D1F4
:101FF0005D463300C20849070A43510FD200D20898
:1020000049070A431100194300D1C8E1802109039F
:102010000B431B03D5491B0BDAE6D549B61A0B4017
:102020009846B5E6200000F06BFA020018321F2A2D
:1020300000DC8FE6230008388340002492E6084342
:102040000200501E82416DE6CA4C721C224200D032
:10205000ADE04A461A43002EB8D1002A00D158E11B
:102060000A00024300D059E14A465907D2080A4300
:10207000DB0886E74A465907D2080A43DB08C1E76E
:10208000BA4DAA4200D11EE180252D042B4364469F
:10209000382C5DDC1F2C00DDD0E0202567462D1B91
:1020A0004E461C00FE40AC4034434E46AE40350028
:1020B000FB406E1EB541C91A2C434EE04A46141A25
:1020C000A1459241524290465F1A3A004746D21BC0
:1020D0009046120200D58BE04246224300D030E603
:1020E000002300254DE74A465907D2080A43DB087A
:1020F00044E742469E4B61081A40130001221440F7
:102100000C43DA075B089846144341E61A001F3E69
:10211000F2401600202903D04022511A8B401C4364
:10212000621E944100233443984600261DE70C00AC
:10213000203AD44022006446202C04D040273F1B84
:10214000B940084380464446611E8C412243E9E57C
:102150004C4623431C00631E9C41041BA0429B4130
:102160005B42CB1A98465D461600E2E54E461E439A
:1021700000D1AEE0661E012C00D1FDE07B4FBC42D9
:1021800000D107E1B4469BE664462022121B0C00F6
:10219000944007009040A0466446421E904162462B
:1021A000E7404446D1403C4304435B18F3E66F4CA0
:1021B000A24200D1D5E048445B18484589414942D4
:1021C0005B18DC0740085B08984616000443CCE621
:1021D000002A00D082E00A00024340D1802300257B
:1021E0001B0313E74B07C2081A435D46CB08C5E63D
:1021F0004A46841AA0429241CB1A52429B1A9846F0
:102200005D469EE54A465907D2080A43DB08F9E6CF
:102210004A46141AA14592415B1A52429B1A9846AB
:10222000012686E54A465907D2080A43DB08A5E697
:102230004C4623431C00631E9C415BE665461E0022
:10224000203DEE40202C05D040252D1BAB404C46B8
:102250001C43A2465446631E9C4134437DE74B0712
:10226000C2081A435D46CB08CCE60A00024300D1FF
:1022700036E74B07C2081A435D46CB0881E64A465B
:10228000841AA0429241CB1A52429B1A98465D464C
:1022900001264EE54B07C2081A43CB08B2E64A4670
:1022A000141AA14592415F1A5242BA1A904612027C
:1022B0006BD54A46841AA0429241CB1A52429B1ACD
:1022C00098465D4664E54B07C2081A435D46CB0855
:1022D00098E64B07C2081A43CB084FE60A000243B0
:1022E00090D04A465C07D20814438022DB081203D0
:1022F000134208D0CE08164205D1C008490708434A
:1023000004005D463300610FE2004907D2080A432A
:1023100078E64B07C2081A43CB0832E648445B18FC
:1023200048459241984652429044434604001B025D
:1023300000D41AE642460E4B01261A40904614E697
:1023400066461F00203EF740202C05D04026361B55
:10235000B3404C461C43A2465446631E9C413C433A
:10236000C8E511000023002232E5C046FF07000047
:10237000FFFF7FFFFE0700004A4614188442924187
:102380005B18984652429044E9E54246224300D108
:10239000A6E6EAE54B07C2081A43CB0832E600225C
:1023A0000149130014E5C046FF07000070B50500A1
:1023B0000C480C03160049001A035B00240B490D5E
:1023C000120B5B0D814208D0064900208B4203D1DD
:1023D00032431000421E904170BD01202C43FBD1BE
:1023E000F2E7C046FF0700000A0030B5134C530067
:1023F00009030500090B00205B0DD20FA34204DD89
:102400000F48834202DD0F4BD01830BD80204003BF
:1024100001430D48C01A1F2808DD0C48C31AD940D3
:102420000B005842002AF0D11800EEE7084CC540D6
:10243000A446634499400B002B43F2E7FE030000DF
:102440001D040000FFFFFF7F3304000013040000A1
:10245000EDFBFFFF70B5002816D0C317C5185D400F
:10246000C40F280000F04CF8114A121A0A2816DC92
:1024700003002E0015339E400B23181AC540530548
:102480002D032D0B5B0D03E0002400230025002607
:102490001B052B43E40723433000190070BD0B38A4
:1024A000854053052D0300262D0B5B0DF0E7C0463C
:1024B0001E04000010B5041E10D000F021F80F4BD0
:1024C0001B1A0A2811DC0B222100121AD1401530E8
:1024D0000A035B058440120B5B0D01E00023002220
:1024E0001B0513432000190010BD22000B38824049
:1024F0005B0512030024120B5B0DF1E71E040000C4
:102500001C2101231B04984201D3000C10391B0A23
:10251000984201D3000A08391B09984201D30009E7
:10252000043902A2105C40187047C046040302023E
:1025300001010101000000000000000010B50029A9
:1025400003D1FFF7DDFF203002E0081CFFF7D8FFC2
:1025500010BDC046F0B557464E464546DE46E0B58E
:102560000F001900002306009846100083B0002FCA
:1025700007DA33003C0000275E42A74101235B429B
:102580009846002907DA4346DB430C0098460300CF
:1025900000215842A14134003D0082468946B9429B
:1025A0006AD867D049465046FFF7C8FF83463900CE
:1025B0003000FFF7C3FF5B461B1A9C46203B9B463F
:1025C0006BD458465146814060460B0051468140CD
:1025D0000A00BB4200D972E0BB4200D179E034006E
:1025E0003D005946A41A9D41002900DA74E00021FB
:1025F000002001260090019159468E4001966146C7
:1026000001268E406146009600295FD0D907560802
:102610000E435F086146012200230CE0AF4201D166
:10262000A6420AD8A41BBD4124196D410139A41842
:102630005D41002906D0AF42F0D9013924196D411E
:102640000029F8D1009801995B4600196941002BD7
:102650004DDB2E002C00DE406346DC405B46002B49
:1026600055DB34009C4023006446A6403200801AAB
:10267000994103E0B04295D9002000214346002B48
:1026800004D003000C0000215842A14103B03CBC1F
:1026900090469946A246AB46F0BD62464846202386
:1026A000514690409B1AD940030000910099604622
:1026B0000B43514681400A00BB4200D88CE7002101
:1026C000002000900191614600299FD10098019956
:1026D000D4E7B142F3D882E7614620260127761A73
:1026E00000200021F74000900191019787E76246A2
:1026F00020239B1A2A009A40260013006246D640E7
:102700002C001E436346DC405B46002BA9DA624680
:102710002023350094409B1ADD4023002B43A3E780
:1027200090B583B000AF02003960FB1D1A70FB1D2D
:102730001B787F2B28D82F4AFB1D1B785BB29B0888
:10274000C0339B009B58FA1D1278110003220A40E7
:10275000D200FF2191400A00D2431A4011003B6889
:102760009B01FF221A40FB1D1B7818000323034026
:10277000DB009A401F48FB1D1B785BB29B080A4395
:10278000C0339B001A5031E01B4AFB1D1B78190017
:102790000F230B40083B9B0806339B00D3180433E0
:1027A0001B68FA1D1278110003220A40D200FF2193
:1027B00091400A00D2431A4011003B689B01FF225E
:1027C0001A40FB1D1B78180003230340DB009A40CE
:1027D0000948FB1D1B781C000F232340083B9B0866
:1027E0000A4306339B00C31804331A60C046BD4633
:1027F00003B090BD00E100E000ED00E080B500AF67
:10280000BFF34F8FC046044B044ADA60BFF34F8FCB
:10281000C046C046FDE7C04600ED00E00400FA05F2
:1028200080B500AFC046BD4680BD80B500AFC04694
:10283000BD4680BD80B500AFC046BD4680BD80B5F9
:1028400000AFC046BD4680BD80B500AFC046BD46A6
:1028500080BD80B500AFC046BD4680BD80B500AF2D
:10286000C046BD4680BD80B500AFC046BD4680BDF8
:1028700080B500AFC046BD4680BD80B500AFC04644
:10288000BD4680BD80B500AFC046BD4680BD80B5A9
:1028900000AFC046BD4680BD80B500AFC046BD4656
:1028A00080BD80B500AFC046BD4680BD80B500AFDD
:1028B0000B4A9423D358002B0ED10A4B1B69002BD3
:1028C00003D1084B9B6B002B06D0074B01229A606B
:1028D000FDF732FCFFF792FF01231800BD4680BDD3
:1028E00000004048000050480400002080B584B03B
:1028F00000AFFFF7DBFF0300012B28D11A4BFB6071
:102900001A4BBB6007E0FA68131DFB60BB68191D1A
:10291000B96012681A60BA68154B9A42F3D3154B26
:10292000BB6004E0BB681A1DBA6000221A60BA6876
:10293000114B9A42F6D3114BBB6004E0BB681A1DE1
:10294000BA6000221A60BA680D4B9A42F6D30D4B5A
:102950007B607B6883F30888C0460EF0F9FAC046B6
:10296000BD4604B080BDC0465C710610900F0020CB
:1029700004130020C0000020BC030020BC03002082
:10298000900F00200060002080B584B000AF786018
:10299000114B1B68002B02D10F4B104A1A600E4BD3
:1029A0001B68FB600C4B1A687B68D2180C4B9A4270
:1029B00007D91EF099FD03000C221A6001235B4227
:1029C00006E0054B1A687B68D218034B1A60FB6857
:1029D0001800BD4604B080BDBC0300208027002045
:1029E0008029002080B500AF03210020FFF798FE6A
:1029F00003210120FFF794FE03210220FFF790FE40
:102A000003210320FFF78CFE03210720FFF788FE38
:102A100003210820FFF784FE03210920FFF780FE31
:102A200003210A20FFF77CFE03210B20FFF778FE2D
:102A300003210C20FFF774FE03210D20FFF770FE29
:102A400003210E20FFF76CFE03210F20FFF768FE25
:102A500003211020FFF764FE03211120FFF760FE21
:102A600000211220FFF75CFE03211320FFF758FE20
:102A700003211420FFF754FE03211520FFF750FE19
:102A800003211620FFF74CFE01211720FFF748FE17
:102A900000211820FFF744FE03211920FFF740FE14
:102AA00003211A20FFF73CFE03211B20FFF738FE0D
:102AB000C046BD4680BD000080B500AF044B1A681B
:102AC000034B802149020A431A60C046BD4680BDBF
:102AD0000000404880B500AF074B1A6880239B0276
:102AE0001A4080239B029A4201D1012300E0002377
:102AF0001800BD4680BDC0460000404880B582B089
:102B000000AF78600B4A9823D3580B4A1A407B6871
:102B10001B020849134398228B50064A9823D35826
:102B200004498022134398228B50C046BD4602B010
:102B300080BDC04600004048FFC0FFFF80B582B0A6
:102B400000AF7860074A9823D358702293431A0045
:102B500004497B68134398228B50C046BD4602B09F
:102B600080BDC0460000404880B582B000AF7860AC
:102B70000A4BDB680A4A134019007B681A06074BA8
:102B80000A43DA60054BDA68044B802109040A43E2
:102B9000DA60C046BD4602B080BDC0460000404875
:102BA000FFFFFFC080B582B000AFC0460F4B1A6870
:102BB00080239B021340F9D00C4B9A680B4B0221E7
:102BC0000A439A6000237B6003E0C0467B680133C0
:102BD0007B607B68052BF8DD044B9A68034B04216E
:102BE0000A439A60C046BD4602B080BD000040481E
:102BF00080B582B000AF7860064B9B68064A1340F0
:102C00001900044B7A680A439A60C046BD4602B078
:102C100080BDC04600004048FF7FFEFF80B500AF8A
:102C2000044B1A68034B10218A431A60C046BD4604
:102C300080BDC0460000404880B500AF044B1A6814
:102C4000034B04210A431A60C046BD4680BDC046FE
:102C50000000404880B500AF044B1A68034B0421C4
:102C60008A431A60C046BD4680BDC0460000404849
:102C700080B500AF054B1B6808221340082B01D11B
:102C8000012300E000231800BD4680BD000040483D
:102C900080B582B000AF7860094BDB681E22934399
:102CA00019007B685A00064B0A43DA60044BDA6865
:102CB000034B01210A43DA60C046BD4602B080BD25
:102CC0000000404880B582B000AF7860064B1B6EB4
:102CD000042293431900044B7A680A431A66C046DB
:102CE000BD4602B080BDC0460000404880B582B0FD
:102CF00000AF7860064B9B68064A13401900044BEE
:102D00007A680A439A60C046BD4602B080BDC0469C
:102D100000004048FFEFFFFF80B500AF044B1A688A
:102D2000034B802189010A431A60C046BD4680BD1D
:102D30000000404880B500AF074B1A688023DB01D4
:102D40001A408023DB019A4201D1012300E00023D5
:102D50001800BD4680BDC0460000404880B582B026
:102D600000AF7860064B9B68E02293431900044B48
:102D70007A680A439A60C046BD4602B080BDC0462C
:102D80000000404880B582B000AF7860044B5968BD
:102D9000034B7A680A435A60C046BD4602B080BD04
:102DA0000000504880B500AF054B5B69042213401A
:102DB000042B01D1012300E000231800BD4680BD93
:102DC0000000504880B582B000AF7860064BDB69E8
:102DD000064A13401900044B7A680A43DA61C04678
:102DE000BD4602B080BDC04600005048FFFEFFFF58
:102DF00080B582B000AF7860064BDB693022934328
:102E00001900044B7A680A43DA61C046BD4602B035
:102E100080BDC0460000504880B582B000AF7860E9
:102E20000D4A9423D3580D4A1A407B68D902E023F7
:102E30009B010B400849134394228B50064A94236C
:102E4000D35805498022D200134394228B50C046A8
:102E5000BD4602B080BDC04600005048FFC7FFFF1E
:102E600080B582B000AF78600C4A9423D3580C4AE6
:102E70001A407B689901F0239B000B4007491343DC
:102E800094228B50054A9423D3580449202213439B
:102E900094228B50C046BD4602B080BD0000504811
:102EA0003FFCFFFF80B500AF044B5A68034B044959
:102EB0000A405A60C046BD4680BDC046000050482A
:102EC000FFFEFFFF80B582B000AF786039607B689D
:102ED0005B68302293431A003B681A437B685A6050
:102EE000C046BD4602B080BD80B584B000AF7860FA
:102EF000074B196E064B7A680A431A66044B1B6E21
:102F00007A681340FB60FB68C046BD4604B080BDD4
:102F10000000404880B582B000AF7860044B196C67
:102F2000034B7A680A431A64C046BD4602B080BDAE
:102F30000000404880B582B000AF7860054B1A6C45
:102F40007B68D943034B0A401A64C046BD4602B0B1
:102F500080BDC0460000404880B584B000AFF86036
:102F6000B960FB1D1A70FB1D1B78002B12D0FB688B
:102F7000FA2291001800FDF777F903005A1E0A4B58
:102F8000B9684A435A60084B00229A60064B0522F2
:102F90001A6005E0044B1A68034B01218A431A604A
:102FA000C046BD4604B080BD10E000E080B500AF73
:102FB000054B1A6880235B02134001D0012300E017
:102FC00000231800BD4680BD10E000E080B586B04B
:102FD00000AFF860B9607A601723FB1801221A70FD
:102FE000114B1B68F96801221800FFF7B5FF08E0D4
:102FF000FFF7DCFF031E04D01723FB1800221A7012
:1030000005E0BB68984702007B689342F0D100223C
:1030100000210020FFF7A0FF1723FB181B781800E2
:10302000BD4606B080BDC046900F002080B586B07A
:1030300000AFBB1D00221A702F4B01221900C820BF
:10304000FFF7C4FF031E05D1BB1D01221A70BB1D73
:103050001B784DE02020FFF7CBFE80235B0118009A
:10306000FFF744FE254B1B68254A93421AD1254B96
:103070001B680F2213407B61224B1B681B09072230
:1030800013403B611F4B1B681B0B0F221340FB605F
:103090001C4B1B681B0C3F221340BB60FB1D012215
:1030A0001A700AE00A237B611F23BB600823FB60C0
:1030B000FB1D01221A7003233B61BB681800FFF758
:1030C00053FDFB1D1B78002B03D0FB681800FFF796
:1030D000DFFD7B691800FFF7C3FE3B691800FFF7AF
:1030E0009BFE80235B001800FFF76CFEBB1D1B7866
:1030F0001800BD4606B080BDA52D0410F81E0010B6
:10310000CCECBCFCE41E001080B582B000AFFB1D0F
:1031100000221A70FFF79EFD134996235B000022E0
:103120001800FFF753FF031E02D1FB1D03221A7084
:10313000FFF774FD80235B021800FFF759FDFFF7CE
:103140007BFD094996235B0001221800FFF73EFF33
:10315000031E02D1FB1D03221A70FB1D1B781800F1
:10316000BD4602B080BDC046712C041080B588B049
:1031700000AF0200FB1D1A70FB1D1B78002B0ED048
:103180002020FFF7EBFD0020FFF79CFD0120FFF75B
:10319000C1FE0120FFF7CEFE0120FFF7A5FE7C4B0C
:1031A0001B687C4A934222D17B4B1B681B0A0F226F
:1031B0001340FB61784B1B681B0B0F221340BB6154
:1031C000754B1B681B0C0F2213407B61724B1B68F5
:1031D0001B0D072213403B616F4B1B681B0E072220
:1031E0001340FB600B23FB1801221A7010E0082328
:1031F000FB610723BB6108237B610B217B18002245
:103200001A7003233B610323FB607B1801221A70B1
:10321000624A9E239B00D3580F2293431A007B6976
:103220000F210B405D491A439E239B00CA505B4A05
:103230009D239B00D358F02293431A00BB691B01C6
:10324000FF210B4055491A439D239B00CA50534A06
:103250009D239B00D3580F2293431A00FB690F2133
:103260000B404E491A439D239B00CA500B23FB1869
:103270001B78002B1ED0494A92239B00D35807226B
:1032800093431A003B6907210B4044491A43922398
:103290009B00CA50414A92239B00D3583822934343
:1032A0001A00FB68DB0038210B403C491A4392238B
:1032B0009B00CA50394AA4235B00D358FF22934392
:1032C000364955221A43A4235B00CA50334AAA2325
:1032D0005B00D358FF229343304966221A43AA2346
:1032E0005B00CA502D4AB4235B00D358FF2293439E
:1032F0002A4955221A43B4235B00CA50274AC423E3
:103300005B00D358FF22934324491D221A43C42350
:103310005B00CA50214AC2235B00D358FF2293436B
:103320001E4959221A43C2235B00CA501B4AC623B6
:103330005B00D358FF229343184932221A43C62315
:103340005B00CA50154AB6235B00D35813490122CB
:103350001A43B6235B00CA50104AD0239B00D358AF
:10336000FF2293430D491F221A43D0239B00CA50CA
:103370000A4AD1239B00D358FF22934307490922CD
:103380001A43D1239B00CA50C046BD4608B080BD39
:10339000F81E0010CCECBCFCE81E0010001400600D
:1033A00090B585B000AF0200FB1D1A700F243B19C9
:1033B00000221A70FFF780FB3C4B012219006420A9
:1033C000FFF704FE031E05D13B1904221A703B19B6
:1033D0001B7867E0FB1D1B78002B50D0FB1D1B7872
:1033E000072B3AD89A00324BD3181B689F46314BB3
:1033F00010211800FFF766FD0020FFF7AFFC2E4BF1
:103400002E4A1A602AE02020FFF7A8FC2A4B2C4AFB
:103410001A6023E04020FFF7A1FC274B294A1A60DD
:103420001CE06020FFF79AFC234B274A1A6015E046
:103430008020FFF793FC204B244A1A600EE0A02066
:10344000FFF78CFC1C4B224A1A6007E0C020FFF7F4
:1034500085FC194B1F4A1A6000E0FEE7FFF75CFC91
:103460001D4B01221900C820FFF7B0FD031E0ED12D
:103470000F217B1805221A707B181B7812E0202080
:10348000FFF76CFCFFF78EFB0B4B0D4A1A600A4BE3
:103490001B680A4A934204D0064B00211800FFF72C
:1034A00011FD00231800BD4605B090BDD52A0410BB
:1034B0001466061000100040900F00200090D0030A
:1034C0000048E8010024F40000127A0000093D00E1
:1034D00080841E0040420F00352D041080B582B05C
:1034E00000AF0200FB1D1A70BB1D0A1C1A70FB1DE9
:1034F0001B78FF2B01D100232EE0BB1D1B78042B72
:103500000BD0BB1D1B78052B07D0BB1D1B78062BD2
:1035100003D0BB1D1B78072B01D101231CE0BB1D71
:103520001B78032B05D1FB1D1B78002B01D1012338
:1035300012E0FB1D1B78012B03D0BB1D1B78032B56
:1035400006D10420FFF7BEFBFB1D01221A7002E02A
:103550000020FFF7B7FB00231800BD4602B080BD76
:10356000B0B584B000AF0200FB1D1A70BB1D0A1C71
:103570001A70304B304A9A602F4A304B1A61202023
:10358000FFF700FCFFF78EFC0F257C19FFF74EFDBF
:10359000030023702A00BB181B78002B02D0BB1835
:1035A0001B7842E00F257C19FFF7AEFD0300237066
:1035B0002A00BB181B78002B02D0BB181B7834E004
:1035C000BB1D1B78FF2B02D00120FFF7CFFD202071
:1035D000FFF794FA3020FFF7B1FA0F257C19FB1D95
:1035E0001B781800FFF7DCFE030023707B191B78A3
:1035F000002B02D07B191B7817E00F257C19FB1DCF
:103600001A78BB1D1B7811001800FFF767FF030035
:1036100023707B191B78002B02D07B191B7804E0E8
:10362000FFF7E0F962B6C04600231800BD4604B0BB
:10363000B0BDC04600ED00E0000004100400002012
:1036400080B582B000AF78607B68DB698022134070
:10365000802B01D1012300E000231800BD4602B0F9
:1036600080BD80B582B000AF78600A00FB1C1A7084
:10367000FB1C1A787B689A62C046BD4602B080BDCA
:1036800090B585B000AF78600A00FB1C1A700F235C
:10369000FB1800221A7016E0C046114B1800FFF705
:1036A000CFFF031EF9D00F243B191B787A68D3187B
:1036B0001B780B4A19001000FFF7D3FF3B191A784B
:1036C0003B1901321A700F23FA18FB1C12781B7871
:1036D0009A42E1D3C046C046BD4605B090BDC04643
:1036E0000040004180B582B000AF7860104B1A688E
:1036F000104B1B689A4201D1002314E00D4B1B684C
:103700000D4AD25C7B681A700A4B1B685A1C094B25
:103710001A60084B1A688023DB009A4202D1054BDD
:1037200000221A6001231800BD4602B080BDC046C9
:10373000C0070020C4070020C003002080B582B06D
:1037400000AF786001235B421800BD4602B080BD27
:1037500080B582B000AF786039603B68802292010A
:103760005A6000231800BD4602B080BD80B582B00B
:1037700000AF786001231800BD4602B080BD80B55F
:1037800084B000AFF860B9607A6000231800BD46CD
:1037900004B080BD80B586B000AFF860B9607A60D3
:1037A00000237B6109E07B69BA68D3180121180006
:1037B000FFF766FF7B6901337B617A697B689A4218
:1037C000F1DB7B681800BD4606B080BD80B586B0D1
:1037D00000AFF860B9607A6000237B610EE07B691E
:1037E000BA68D3181800FFF77DFF031E03D17B6969
:1037F00001337B6102E07B69002B04D17B697A682D
:103800009A42ECD800E0C0467B691800BD4606B07D
:1038100080BD80B582B000AFFB1D00221A7003206E
:1038200002F088FC031E03D0FB1D01221A7001E088
:103830000EF032F8FB1D1B781800BD4602B080BDAB
:1038400080B500AF044B1A68044B1B68D218024BBA
:103850001A60C046BD4680BD340B0020940F002086
:1038600080B500AF024B1B681800BD4680BDC04646
:10387000340B002080B584B000AF7860FFF7F0FF14
:103880000300BB607B68FB60FB68013304D0094B1D
:103890001B68FA68D318FB60C046FFF7E1FF02001F
:1038A000BB68D31AFA689A42F7D8C046C046BD46EC
:1038B00004B080BD940F002080B582B000AF786066
:1038C00039607B685B68054A1A403B681A437B682D
:1038D0005A60C046BD4602B080BDC046FFFFF7FF3C
:1038E00080B582B000AF78607B685B688022D202CE
:1038F0001A437B685A60C046BD4602B080BD0000D6
:1039000080B582B000AF78607B685B68034A1A407C
:103910007B685A60C046BD4602B080BDFFFFFBFF1A
:1039200080B582B000AF78607B685B6880229202CD
:103930001A437B685A60C046BD4602B080BD000095
:1039400080B582B000AF78607B685B68034A1A403C
:103950007B685A60C046BD4602B080BDFFFFFDFFD8
:1039600080B582B000AF786039607B685B68054ADB
:103970001A403B681A437B685A60C046BD4602B095
:1039800080BDC046FF7FFFFF80B582B000AF78608A
:103990007B685A6880239B011A4080239B019A42CE
:1039A00001D1012300E000231800BD4602B080BD14
:1039B00080B584B000AFF860B9607A60FB685B687E
:1039C000084A1A40BB681A43FB685A60FB685B6888
:1039D000054A1A407B681A43FB685A60C046BD46D8
:1039E00004B080BDFFFF1FFFFFE7FFFF80B582B07F
:1039F00000AF78603960C046BD4602B080BD80B57A
:103A000082B000AF786039607B685B683C2293438A
:103A10001A003B681A437B685A60C046BD4602B034
:103A200080BD80B582B000AF78607B685B680122A2
:103A30001340012B01D1012300E000231800BD46F3
:103A400002B080BD80B582B000AF78607B689B68B3
:103A500020221A437B689A60C046BD4602B080BDF2
:103A600080B582B000AF78607B689B6820221340ED
:103A7000202B01D1012300E000231800BD4602B035
:103A800080BD80B582B000AF78607B689B68022201
:103A90001340022B01D1012300E000231800BD4692
:103AA00002B080BD80B584B000AFF860B9607A60C4
:103AB000FB68DB693F2293431A00BB68D9007B682F
:103AC0000B431A43FB68DA61C046BD4604B080BDB3
:103AD00080B582B000AF78607B68DB6C3A2213401F
:103AE0001800BD4602B080BD80B582B000AF7860DE
:103AF00039607B68DA6C3B681A437B68DA64C046DD
:103B0000BD4602B080BD80B582B000AF786039603C
:103B10007B68DB6C3A6813403A689A4201D1012312
:103B200000E000231800BD4602B080BD80B582B021
:103B300000AF786039607B681B6D3A68D2431A40E9
:103B40007B681A65C046BD4602B080BD80B582B0B4
:103B500000AF786039607B681B6D3A6813403A6843
:103B60009A4201D1012300E000231800BD4602B0B3
:103B700080BD000080B584B000AF78600F23FB18D3
:103B800000221A707B68002B01D10123C2E07B6800
:103B9000DB6A002B1ED17B68604A5A637B68604AEF
:103BA0009A637B685F4ADA637B685F4A1A647B6862
:103BB0005B6C002B02D17B685C4A5A647B685B6C4F
:103BC0007A68100098477B6800221A637B68282275
:103BD000002199547B681B681800FFF741FF031E02
:103BE00004D17B681B681800FFF72CFF7B68DB6A39
:103BF0001022134000D080E07B681B681800FFF79C
:103C000040FF031E00D078E07B68DB6A484A13401F
:103C100002221A437B68DA627B6818687B685969FC
:103C20007B689B691A00FFF7C3FE7B681A687B6894
:103C3000DB6919001000FFF73FFE7B681A687B689C
:103C40001B6919001000FFF78BFE7B68DB68002BF7
:103C50000AD17B681B681800FFF752FE7B681B685F
:103C60001800FFF76DFE27E07B68DB68012B0AD1A7
:103C70007B681B681800FFF733FE7B681B68180021
:103C8000FFF75EFE18E07B68DB68022B0AD17B68D9
:103C90001B681800FFF734FE7B681B681800FFF7ED
:103CA0003FFE09E07B681B681800FFF719FE7B6880
:103CB0001B681800FFF734FE7B6818687B689968FA
:103CC0007B685B681A00FFF7EDFE7B681A687B680B
:103CD0001B6A19001000FFF792FE80235B00154A53
:103CE00019001000FFF782FE7B68DB6A0322934312
:103CF00001221A437B68DA6209E07B68DB6A1022E2
:103D00001A437B68DA620F23FB1801221A700F2313
:103D1000FB181B781800BD4604B080BDDD0A0510F5
:103D2000C53E0410D53E0410F90A0510150A051009
:103D3000FDFEFFFF0060004180B584B000AF7860F9
:103D40000023FB607B681B681800FFF7C1FE0300BF
:103D5000BB607B681B6802211800FFF7F7FE031E9B
:103D600003D0BB68022213400BD17B681B6808217B
:103D70001800FFF7EBFE031E49D0BB680822134072
:103D800045D07B68DB6A1022134006D17B68DB6A72
:103D9000802292001A437B68DA627B681B681800F5
:103DA000FFF73FFE031E27D07B681B680821180021
:103DB000FFF7A9FE031E1FD07B681B681800FFF7E2
:103DC00060FE031E0CD17B681B680A211800FFF7F8
:103DD000ADFE7B68DB6A3A4A1A407B68DA620BE028
:103DE0007B68DB6A10221A437B68DA627B681B6B94
:103DF00001221A437B681A637B685B6B7A68100048
:103E000098477B681B680A211800FFF76DFE7B68E6
:103E10001B6810211800FFF799FE031E15D0BB6820
:103E20001022134011D07B68DB6A802252021A43B1
:103E30007B68DA627B68DB6B7A68100098477B6886
:103E40001B6810211800FFF74FFE7B681B682021BC
:103E50001800FFF77BFE031E2ED0BB682022134004
:103E60002AD07B681B69002B02D10123FB6008E08C
:103E70007B681B681800FFF787FD031E01D0012334
:103E8000FB60FB68012B11D17B68DB6A8022D200CA
:103E90001A437B68DA627B681B6B02221A437B68D9
:103EA0001A637B681B6C7A68100098477B681B68F4
:103EB00020211800FFF718FEC046BD4604B080BDA3
:103EC000FFFEFFFF80B582B000AF7860C046BD4600
:103ED00002B080BD80B582B000AF7860C046BD46FC
:103EE00002B080BD80B582B000AF0200FB1D1A7029
:103EF000FB1D1B787F2B09D8FB1D1B781A001F2385
:103F00001A40044B012191400A001A60C046BD4688
:103F100002B080BD00E100E090B583B000AF0200C8
:103F20003960FB1D1A70FB1D1B787F2B28D82F4A88
:103F3000FB1D1B785BB29B08C0339B009B58FA1D8E
:103F40001278110003220A40D200FF2191400A009A
:103F5000D2431A4011003B689B01FF221A40FB1D0F
:103F60001B78180003230340DB009A401F48FB1D09
:103F70001B785BB29B080A43C0339B001A5031E0A8
:103F80001B4AFB1D1B7819000F230B40083B9B08A5
:103F900006339B00D31804331B68FA1D12781100F6
:103FA00003220A40D200FF2191400A00D2431A4066
:103FB00011003B689B01FF221A40FB1D1B78180073
:103FC00003230340DB009A400948FB1D1B781C00BB
:103FD0000F232340083B9B080A4306339B00C3186A
:103FE00004331A60C046BD4603B090BD00E100E056
:103FF00000ED00E080B582B000AF02003960FB1D2B
:104000001A703A68FB1D1B785BB211001800FFF7AD
:1040100083FFC046BD4602B080BD80B582B000AF10
:104020000200FB1D1A70FB1D1B785BB21800FFF726
:1040300059FFC046BD4602B080BD80B582B000AF1A
:1040400078607B68002B01D1012331E07B68252259
:104050009B5CDBB2022B08D07B680422DA637B68AE
:10406000242200219954012322E07B681B681A68EE
:104070007B681B680E218A431A607B681B681A687C
:104080007B681B6801218A431A607B685B6C3C2259
:104090001A407B681B6C012191400A005A607B68C2
:1040A0002522012199547B68242200219954002360
:1040B0001800BD4602B080BD80B584B000AF786006
:1040C0000F217B1800221A707B6825229B5CDBB2D3
:1040D000022B06D07B680422DA637B1801221A7057
:1040E0002AE07B681B681A687B681B680E218A437C
:1040F0001A607B681B681A687B681B6801218A4309
:104100001A607B685B6C3C221A407B681B6C012147
:1041100091400A005A607B682522012199547B68EE
:104120002422002199547B689B6B002B04D07B6870
:104130009B6B7A68100098470F23FB181B781800B8
:10414000BD4604B080BD80B582B000AF78608023EA
:10415000DB0599698023DB057A680A439A61C046CA
:10416000BD4602B080BD80B582B000AF78608023CC
:10417000DB059A697B68D9438023DB050A409A6195
:10418000C046BD4602B080BD80B582B000AF02001F
:104190003960FB1D1A70FB1D1B78002B09D1802391
:1041A000DB05DA683B68D9438023DB050A40DA6027
:1041B00007E08023DB05D9688023DB053A680A43E2
:1041C000DA60C046BD4602B080BD80B582B000AFA7
:1041D00002003960FB1D1A70FB1D1B78032B11D1E7
:1041E0008023DB0519698023DB053A680A431A61DD
:1041F0008023DB055A693B68D9438023DB050A40ED
:104200005A6158E0FB1D1B78012B11D18023DB057F
:104210001A693B68D9438023DB050A401A61802371
:10422000DB0559698023DB053A680A435A6142E09D
:10423000FB1D1B78022B12D18023DB051A693B681A
:10424000D9438023DB050A401A618023DB055A69C4
:104250003B68D9438023DB050A405A612BE0FB1DF4
:104260001B78042B12D18023DB051A693B68D943E4
:104270008023DB050A401A618023DB055A693B680D
:10428000D9438023DB050A405A6114E0FB1D1B78EB
:10429000052B10D18023DB051A693B68D9438023A5
:1042A000DB050A401A618023DB0559698023DB05A1
:1042B0003A680A435A61BD4602B080BD80B582B0FB
:1042C00000AF78608023DB05DB697A6813407A6889
:1042D0009A4201D1012300E000231800BD4602B03C
:1042E00080BD80B582B000AF78608023DB057A683E
:1042F000DA61C046BD4602B080BD80B582B000AF75
:10430000786039607B68002B02D03B68002B01D1BC
:10431000012316E03B681A687B681A603B685B689B
:10432000DAB23B681B6819001000FFF72DFF3B68ED
:104330009B68DAB23B681B6819001000FFF745FF65
:1043400000231800BD4602B080BD80B586B000AF26
:10435000F8607A600B203B180A1C1A701723FB18B0
:1043600000221A703B181B78002B03D1FB687A6877
:104370005A6004E01723FB1801221A70C046172365
:10438000FB181B781800BD4606B080BD80B582B012
:1043900000AF78600A00FB1C1A707B68002B01D10B
:1043A00001230FE0FB1C1B78012B05D17B681B68E8
:1043B0001800FFF7C8FE04E07B681B681800FFF7D1
:1043C000D2FE00231800BD4602B080BD80B584B087
:1043D00000AF78607B681B681800FFF76FFF030071
:1043E000FB60FB68002B0ED07B685B68002B05D060
:1043F0007B685A687B681B68180090477B681B685D
:104400001800FFF76EFFC046BD4604B080BD80B502
:1044100082B000AF78607B681B681800FFF761FF0F
:10442000C046BD4602B080BD80B582B000AF7860A6
:10443000084B5A6A7B68D943064B0A405A62054BBF
:10444000196A044B7A680A431A62C046BD4602B034
:1044500080BDC0460000504880B582B000AF786093
:10446000084B1A6A7B68D943064B0A401A62054B0F
:10447000596A044B7A680A435A62C046BD4602B084
:1044800080BDC0460000504880B582B000AF786063
:10449000084B1A6A7B68D943064B0A401A62054BDF
:1044A0005A6A7B68D943034B0A405A62C046BD46EC
:1044B00002B080BD0000504880B582B000AF786087
:1044C000084BDA6A7B68D943064B0A40DA62054B2F
:1044D000996A044B7A680A439A62C046BD4602B0A4
:1044E00080BDC0460000504880B582B000AF786003
:1044F000084B9A6A7B68D943064B0A409A62054B7F
:10450000D96A044B7A680A43DA62C046BD4602B0F3
:1045100080BDC0460000504880B582B000AF7860D2
:10452000084B9A6A7B68D943064B0A409A62054B4E
:10453000DA6A7B68D943034B0A40DA62C046BD465B
:1045400002B080BD0000504880B586B000AF7860F2
:10455000396000237B61C4E13B681B6801217A69F3
:1045600091400A001340BB60BB68002B00D1B5E14D
:104570003B685B68022B03D03B685B68122B23D13E
:104580007B69DA087B6808329200D3583B617B690B
:10459000072213409B000F229A401300DA433B6925
:1045A00013403B613B681A697B6907210B409B0004
:1045B0009A4013003A6913433B617B69DA087B68D0
:1045C000083292003969D1507B681B683B617B6976
:1045D0005B0003229A401300DA433B6913403B61BE
:1045E0003B685B6803221A407B695B009A401300BA
:1045F0003A6913433B617B683A691A603B685B68C0
:10460000012B0BD03B685B68022B07D03B685B68D3
:10461000112B03D03B685B68122B30D17B689B6801
:104620003B617B695B0003229A401300DA433B69DC
:1046300013403B613B68DA687B695B009A4013007A
:104640003A6913433B617B683A699A607B685B68AF
:104650003B6101227B699A401300DA433B691340B6
:104660003B613B685B681B0901221A407B699A40E9
:1046700013003A6913433B617B683A695A607A6870
:104680009023DB059A421BD13B689B68022B11D01B
:1046900032D8002B02D0012B06D02DE03B681B68DE
:1046A0001800FFF7F1FE27E03B681B681800FFF7D2
:1046B000BBFE21E03B681B681800FFF7CDFE1BE046
:1046C0003B689B68022B11D016D8002B02D0012B1F
:1046D00006D011E03B681B681800FFF71DFF0BE0D8
:1046E0003B681B681800FFF7E7FE05E03B681B68A6
:1046F0001800FFF7F9FEC0463B685A6880235B0547
:10470000134000D1EAE00F23FB1800221A70802327
:10471000DB05DB683B617A689023DB059A4215D1A3
:1047200001227B699A401300DB431A003B69134066
:104730003B613B685B681A0980235B011A407B6917
:104740009A4013003A6913433B6116E001227B69EA
:104750009A4013001B04DB431A003B6913403B6182
:104760003B685B681A0980235B011A407B699A40A9
:1047700013001B043A6913433B618023DB053A694C
:10478000DA603B685A6880235B02134048D180237B
:10479000DB051B693B617A689023DB059A4209D1EE
:1047A00001227B699A401300DB431A003B691340E6
:1047B0003B6109E001227B699A4013001B04DB4343
:1047C0001A003B6913403B613B685A68C0239B0356
:1047D0001A40C0239B039A421ED10F23FB180122CB
:1047E0001A708023DB053A695A617A689023DB05E9
:1047F0009A4208D101227B699A4013001A003B6952
:1048000013433B6108E001227B699A4013001B04BB
:104810001A003B6913433B618023DB053A691A6147
:104820008023DB055B693B610F23FB181B78002BA2
:1048300035D17A689023DB059A4209D101227B6940
:104840009A401300DB431A003B6913403B6109E0C7
:1048500001227B699A4013001B04DB431A003B6969
:1048600013403B613B685A6880235B03134016D0BA
:104870007A689023DB059A4208D101227B699A402D
:1048800013001A003B6913433B6108E001227B6976
:104890009A4013001B041A003B6913433B618023B9
:1048A000DB053A695A617A689023DB059A4203D1A5
:1048B0008023DB059B6902E08023DB059B697A6826
:1048C0009023DB059A4204D18023DB057A69DA6103
:1048D00004E08023DB057A691204DA617B69013325
:1048E0007B613B681A687B69DA40131E00D033E6AF
:1048F000C046C046BD4606B080BD80B584B000AF9E
:1049000078600A00BB1C1A807B681B69BA1C12887D
:10491000134004D00F23FB1801221A7003E00F2369
:10492000FB1800221A700F23FB181B781800BD46D5
:1049300004B080BD80B582B000AF7860080011007F
:10494000BB1C021C1A807B1C0A1C1A707B1C1B7867
:10495000002B04D0BB1C1A887B689A6103E0BB1C47
:104960001A887B689A62C046BD4602B080BD0000CE
:1049700080B582B000AF78607B68002B01D1012345
:10498000A8E07B6841229B5CDBB2002B2DD17B68C9
:104990004022002199547B68504ADA647B68504A6F
:1049A0001A657B684F4A5A657B684F4A9A657B68EF
:1049B0004E4ADA657B684E4A1A667B684D4A5A66EB
:1049C0007B684D4A9A667B684C4ADA667B684C4A3B
:1049D0001A677B685B6F002B02D17B68494A5A6774
:1049E0007B685B6F7A68100098477B6841222421BE
:1049F00099547B681B681A687B681B6801218A438D
:104A00001A607B685A687B681B683F490A401A61D4
:104A10007B681B689A687B681B683C490A409A60FF
:104A20007B68DB68012B08D17B689A687B681B6810
:104A3000802109020A439A6007E07B689A687B68D4
:104A40001B68842109020A439A607B68DB68022B99
:104A500004D17B681B68802212015A607B681B6846
:104A60005A687B681B682A490A435A607B681B683E
:104A7000DA687B681B6825490A40DA607B681A6936
:104A80007B685B691A4311007B689B691A027B682B
:104A90001B680A43DA607B68D9697B681A6A7B689D
:104AA0001B680A431A607B681B681A687B681B686E
:104AB00001210A431A607B6800225A647B68412204
:104AC000202199547B6800221A637B6842220021CE
:104AD000995400231800BD4602B080BD01030510A3
:104AE00091510410A1510410B1510410E15104106E
:104AF000F1510410015204101152041021520410FB
:104B0000C151041055020510FFFFFFF0FF7FFFFFAA
:104B10000080000290B589B002AFF86008007A60AA
:104B200019000A23FB18021C1A800823FB180A1C10
:104B30001A80FB6841229B5CDBB2202B00D0E7E0AF
:104B4000FB6840229B5C012B01D10223E1E0FB6862
:104B5000402201219954FEF783FE03007B618023EC
:104B60001902F8687B6900931923012200F0E6FB23
:104B7000031E01D00123CCE0FB684122212199547E
:104B8000FB68422210219954FB6800225A64FB689A
:104B90007A685A62FB680822BA1812885A85FB683C
:104BA00000225A63FB685B8D9BB2FF2B11D9FB6817
:104BB000FF221A85FB681B8DDAB280235C040A236E
:104BC000FB181988F868554B0093230000F042FD4C
:104BD00075E0FB685B8D9AB2FB681A85FB681B8DDC
:104BE000DAB280239C040A23FB181988F8684B4B1F
:104BF0000093230000F02EFD61E07A69B96AFB683A
:104C0000180000F0DAFB031E01D0012381E0FB68ED
:104C10005B6A1A78FB681B689A62FB685B6A5A1CBD
:104C2000FB685A62FB685B8D9BB2013B9AB2FB68E2
:104C30005A85FB681B8D013B9AB2FB681A85FB689D
:104C40005B8D9BB2002B3AD0FB681B8D002B36D1BD
:104C5000BA6AF8687B69009313000022802100F093
:104C60006DFB031E01D0012353E0FB685B8D9BB2FB
:104C7000FF2B11D9FB68FF221A85FB681B8DDAB266
:104C800080235C040A23FB181988F868002300932A
:104C9000230000F0DFFC12E0FB685B8D9AB2FB683A
:104CA0001A85FB681B8DDAB280239C040A23FB184B
:104CB0001988F86800230093230000F0CBFCFB6800
:104CC0005B8D9BB2002B98D17A69B96AFB6818009A
:104CD00000F0B2FB031E01D001231AE0FB681B6841
:104CE0002022DA61FB681B685A68FB681B680C4964
:104CF0000A405A60FB68412220219954FB684222F5
:104D000000219954FB68402200219954002300E0BF
:104D100002231800BD4607B090BDC04600200080A9
:104D200000E800FE90B589B002AFF86008007A6034
:104D300019000A23FB18021C1A800823FB180A1CFE
:104D40001A80FB6841229B5CDBB2202B00D0E8E09C
:104D5000FB6840229B5C012B01D10223E2E0FB684F
:104D6000402201219954FEF77BFD03007B618023E3
:104D70001902F8687B6900931923012200F0DEFA1A
:104D8000031E01D00123CDE0FB684122222199546A
:104D9000FB68422210219954FB6800225A64FB6888
:104DA0007A685A62FB680822BA1812885A85FB682A
:104DB00000225A63FB685B8D9BB2FF2B11D9FB6805
:104DC000FF221A85FB681B8DDAB280235C040A235C
:104DD000FB181988F868554B0093230000F03AFC43
:104DE00076E0FB685B8D9AB2FB681A85FB681B8DC9
:104DF000DAB280239C040A23FB181988F8684B4B0D
:104E00000093230000F026FC62E07A69B96AFB682F
:104E1000180000F04DFB031E01D0012382E0FB6867
:104E20001B685A6AFB685B6AD2B21A70FB685B6ADD
:104E30005A1CFB685A62FB681B8D013B9AB2FB68E7
:104E40001A85FB685B8D9BB2013B9AB2FB685A8561
:104E5000FB685B8D9BB2002B3AD0FB681B8D002B4F
:104E600036D1BA6AF8687B6900931300002280216A
:104E700000F064FA031E01D0012353E0FB685B8D50
:104E80009BB2FF2B11D9FB68FF221A85FB681B8D93
:104E9000DAB280235C040A23FB181988F86800231F
:104EA0000093230000F0D6FB12E0FB685B8D9AB202
:104EB000FB681A85FB681B8DDAB280239C040A23E9
:104EC000FB181988F86800230093230000F0C2FB48
:104ED000FB685B8D9BB2002B97D17A69B96AFB683E
:104EE000180000F0A9FA031E01D001231AE0FB68A4
:104EF0001B682022DA61FB681B685A68FB681B6824
:104F00000B490A405A60FB68412220219954FB68F2
:104F1000422200219954FB68402200219954002329
:104F200000E002231800BD4607B090BD00240080B9
:104F300000E800FE90B589B002AFF8600C001000E8
:104F400019000A23FB18221C1A800823FB18021CD4
:104F50001A80BB1D0A1C1A80FB6841229B5CDBB2D5
:104F6000202B00D00CE1BB6A002B04D02C23FB18B3
:104F70001B88002B05D1FB68802292005A64012314
:104F8000FFE0FB6840229B5C012B01D10223F8E08B
:104F9000FB68402201219954FEF762FC03007B610B
:104FA00080231902F8687B6900931923012200F01D
:104FB000C5F9031E01D00123E3E0FB684122212152
:104FC0009954FB68422240219954FB6800225A649C
:104FD000FB68BA6A5A62FB682C22BA1812885A8592
:104FE000FB6800225A63BB1D1C880823FB181A8823
:104FF0000A23FB181988F8687B6901933B6B0093BF
:10500000230000F015F9031E05D0FB6840220021A3
:1050100099540123B5E0FB685B8D9BB2FF2B11D93E
:10502000FB68FF221A85FB681B8DDAB280235C04C3
:105030000A23FB181988F86800230093230000F066
:1050400009FB12E0FB685B8D9AB2FB681A85FB686E
:105050001B8DDAB280239C040A23FB181988F86898
:1050600000230093230000F0F5FA7A69396BFB689E
:10507000180000F0A2F9031E01D0012381E0FB68B3
:105080005B6A1A78FB681B689A62FB685B6A5A1C49
:10509000FB685A62FB685B8D9BB2013B9AB2FB686E
:1050A0005A85FB681B8D013B9AB2FB681A85FB6829
:1050B0005B8D9BB2002B3AD0FB681B8D002B36D149
:1050C0003A6BF8687B69009313000022802100F09E
:1050D00035F9031E01D0012353E0FB685B8D9BB2C1
:1050E000FF2B11D9FB68FF221A85FB681B8DDAB2F2
:1050F00080235C040A23FB181988F86800230093B6
:10510000230000F0A7FA12E0FB685B8D9AB2FB68FF
:105110001A85FB681B8DDAB280239C040A23FB18D6
:105120001988F86800230093230000F093FAFB68C5
:105130005B8D9BB2002B98D17A69396BFB681800A4
:1051400000F07AF9031E01D001231AE0FB681B6806
:105150002022DA61FB681B685A68FB681B680B49F0
:105160000A405A60FB68412220219954FB68422280
:1051700000219954FB68402200219954002300E04B
:1051800002231800BD4607B090BDC04600E800FEEF
:1051900080B582B000AF7860C046BD4602B080BD29
:1051A00080B582B000AF7860C046BD4602B080BD19
:1051B00080B582B000AF7860C046BD4602B080BD09
:1051C00080B582B000AF786008001100FB1C021CA3
:1051D0001A703B000A1C1A80C046BD4602B080BD52
:1051E00080B582B000AF7860C046BD4602B080BDD9
:1051F00080B582B000AF7860C046BD4602B080BDC9
:1052000080B582B000AF7860C046BD4602B080BDB8
:1052100080B582B000AF7860C046BD4602B080BDA8
:1052200080B582B000AF7860C046BD4602B080BD98
:10523000B0B586B002AFF8600C00100019000A2566
:105240007B19221C1A800823FB18021C1A80BB1D24
:105250000A1C1A80BB1D1B88DAB280235C047B19F0
:105260001988F868234B0093230000F0F3F97A6A59
:10527000396AFB68180000F0A0F8031E01D0012372
:1052800033E0BB1D1B88012B07D10823FB181B88AB
:10529000DAB2FB681B689A6219E00823FB181B88C6
:1052A0001B0A9BB2DAB2FB681B689A627A6A396A97
:1052B000FB68180000F081F8031E01D0012314E000
:1052C0000823FB181B88DAB2FB681B689A623A6AEB
:1052D000F8687B6A009313000022802100F02EF80A
:1052E000031E01D0012300E000231800BD4604B0D6
:1052F000B0BDC0460020008080B582B000AF7860AD
:105300007B681B689B6902221340022B03D17B68D8
:105310001B6800229A627B681B689B69012213400C
:10532000012B07D07B681B689A697B681B68012189
:105330000A439A61C046BD4602B080BD80B584B0C4
:1053400000AFF860B9603B60FB1D1A7021E03B685C
:1053500001331ED0FEF784FA0200BB69D31A3A6803
:105360009A4202D33B68002B13D1FB685B6C20226E
:105370001A43FB685A64FB68412220219954FB6858
:10538000422200219954FB684022002199540123B4
:105390000FE0FB681B689B69BA681340BA68D31AB0
:1053A0005A425341DBB21A00FB1D1B789A42CED001
:1053B00000231800BD4604B080BD80B584B000AFA6
:1053C000F860B9607A602BE07A68B968FB68180009
:1053D00000F0DAF8031E01D0012329E0BB68013395
:1053E0001ED0FEF73DFA02007B68D31ABA689A42D3
:1053F00002D3BB68002B13D1FB685B6C20221A43DD
:10540000FB685A64FB68412220219954FB684222C0
:1054100000219954FB68402200219954012307E0A0
:10542000FB681B689B6902221340022BCCD100232E
:105430001800BD4604B080BD80B584B000AFF860F0
:10544000B9607A6028E07A68B968FB68180000F0F3
:105450009BF8031E01D0012326E0FEF701FA0200AB
:105460007B68D31ABA689A4202D3BB68002B13D167
:10547000FB685B6C20221A43FB685A64FB6841227C
:1054800020219954FB68422200219954FB68402254
:1054900000219954012307E0FB681B689B692022C7
:1054A0001340202BCFD100231800BD4604B080BD8F
:1054B00080B584B000AFF860B9607A6055E07A6872
:1054C000B968FB68180000F05FF8031E01D00123E3
:1054D00053E0FB681B689B6920221340202B29D1D5
:1054E000FB681B689B6904221340042B05D1FB68F1
:1054F0001B8D002B01D000233FE0FB681B6820229E
:10550000DA61FB681B685A68FB681B681D490A4022
:105510005A60FB6800225A64FB684122202199549A
:10552000FB68422200219954FB68402200219954D3
:10553000012322E0FEF794F902007B68D31ABA68CF
:105540009A4202D3BB68002B0FD1FB685B6C202210
:105550001A43FB685A64FB68412220219954FB6876
:10556000402200219954012307E0FB681B689B69D6
:1055700004221340042BA2D100231800BD4604B01E
:1055800080BDC04600E800FE80B584B000AFF86082
:10559000B9607A60FB681B689B6910221340102B6E
:1055A00051D121E0BB6801331ED0FEF759F902004A
:1055B0007B68D31ABA689A4202D3BB68002B13D116
:1055C000FB685B6C20221A43FB685A64FB6841222B
:1055D00020219954FB68422200219954FB68402203
:1055E0000021995401232FE0FB681B689B6920224E
:1055F0001340202BD6D1FB681B681022DA61FB68B0
:105600001B682022DA61FB681800FFF775FEFB6853
:105610001B685A68FB681B680D490A405A60FB68A2
:105620005B6C04221A43FB685A64FB684122202108
:105630009954FB68422200219954FB6840220021C2
:105640009954012300E000231800BD4604B080BD3A
:1056500000E800FE90B585B000AFF86008001100CA
:105660007B600A243B19021C1A8009203B180A1C83
:105670001A70FB681B685B683A6A510D8022D20081
:105680000A400E490A43D2431A4011003B191B88B5
:105690009B059A0D3B181B781804FF231B0403403D
:1056A0001A437B681A433B6A1A43FB681B680A4328
:1056B0005A60C046BD4605B090BDC046FF63FF03BB
:1056C00080B582B000AF786039607B6841229B5C16
:1056D000DBB2202B38D17B6840229B5C012B01D1AF
:1056E000022332E07B684022012199547B684122E9
:1056F000242199547B681B681A687B681B68012108
:105700008A431A607B681B681A687B681B681149AA
:105710000A401A607B681B6819687B681B683A68D6
:105720000A431A607B681B681A687B681B68012142
:105730000A431A607B684122202199547B684022E9
:1057400000219954002300E002231800BD4602B056
:1057500080BDC046FFEFFFFF80B584B000AF78602A
:1057600039607B6841229B5CDBB2202B39D17B689E
:1057700040229B5C012B01D1022333E07B68402255
:10578000012199547B684122242199547B681B682C
:105790001A687B681B6801218A431A607B681B6852
:1057A0001B68FB60FB68114A1340FB603B681B02EF
:1057B000FA681343FB607B681B68FA681A607B68B1
:1057C0001B681A687B681B6801210A431A607B68A2
:1057D0004122202199547B684022002199540023C2
:1057E00000E002231800BD4604B080BDFFF0FFFFBB
:1057F00080B582B000AF78607B68002B01D10123B7
:105800001AE07B689B7FDBB2002B06D17B6800220D
:105810005A777B68180000F013F87B6802229A77A9
:105820007B681A687B6804331900100000F09CFA4A
:105830007B6801229A7700231800BD4602B080BD24
:1058400080B582B000AF7860C046BD4602B080BD72
:1058500080B584B000AF78607B681B68DA687B68CD
:105860001B6801210A43DA607B681B689B680C4A4D
:105870001340FB60FB68062B0CD0FA6880235B02A8
:105880009A4207D07B681B681A687B681B680121F5
:105890000A431A6000231800BD4604B080BDC0460C
:1058A0000700010080B582B000AF78607B68002BF4
:1058B00001D101231AE07B689B7FDBB2002B06D16C
:1058C0007B6800225A777B6818000BF05DFE7B68CE
:1058D00002229A777B681A687B68043319001000EB
:1058E00000F042FA7B6801229A7700231800BD4637
:1058F00002B080BD80B584B000AF786039607B684D
:105900001B6839680122180000F0CAFB7B681B681D
:10591000184A934204D07B681B68174A934201D10E
:10592000012300E00023002B08D07B681B685A6C21
:105930007B681B68802109020A435A647B681B68E4
:105940009B680E4A1340FB60FB68062B0CD0FA687C
:1059500080235B029A4207D07B681B681A687B68C9
:105960001B6801210A431A6000231800BD4604B0D9
:1059700080BDC046005000400060004007000100AC
:1059800080B582B000AF78607B681B681B6902221B
:105990001340022B24D17B681B68DB680222134072
:1059A000022B1DD17B681B68032252421A617B685F
:1059B00001221A777B681B689B690322134004D07D
:1059C0007B68180000F0B8F907E07B68180000F069
:1059D000ABF97B68180000F0B7F97B6800221A77F2
:1059E0007B681B681B6904221340042B25D17B684C
:1059F0001B68DB6804221340042B1ED17B681B68E4
:105A0000052252421A617B6802221A777B681B6862
:105A10009A69C0239B00134004D07B68180000F0F3
:105A20008BF907E07B68180000F07EF97B681800AE
:105A300000F08AF97B6800221A777B681B681B6973
:105A400008221340082B24D17B681B68DB680822DE
:105A50001340082B1DD17B681B68092252421A6132
:105A60007B6804221A777B681B68DB69032213407A
:105A700004D07B68180000F05FF907E07B6818002D
:105A800000F052F97B68180000F05EF97B68002294
:105A90001A777B681B681B6910221340102B25D1D5
:105AA0007B681B68DB6810221340102B1ED17B68BB
:105AB0001B68112252421A617B6808221A777B68A0
:105AC0001B68DA69C0239B00134004D07B68180070
:105AD00000F032F907E07B68180000F025F97B68D8
